:100000000C94A9000C94C6000C94C6000C94C60075
:100010000C94C6000C94C6000C94C6000C94C60048
:100020000C94C6000C94C6000C94C6000C94C60038
:100030000C94C6000C94C6000C94C6000C94C60028
:100040000C9448050C94C6000C94C6000C94C60091
:100050000C94C6000C94C6000C94C6000C94C60008
:100060000C94C6000C94C60042656D2076696E64DF
:100070006F2021212120202020202020202020202E
:100080002000005072696D65697261204167697472
:100090006163616F2020202020000054656D706F27
:1000A000204D6F6C686F20312020202020000053ED
:1000B0006567756E6420416769746163616F2020B4
:1000C000202020000054656D706F204D6F6C686FAC
:1000D000203220202020202020000054656D706FE9
:1000E0002043656E74726966756761202020202048
:1000F0000000456D2070726F636573736F2E2E2E36
:100100002E202020000046696D20646F2070726FE1
:10011000636573736F2020202020200000456E63EC
:1001200068656E646F2020202020200000457376D3
:10013000617A69616E646F202020202020000052C7
:1001400065696E696369616E646F2E2E2E2E2020A4
:10015000000011241FBECFEFD8E0DEBFCDBF11E0FD
:10016000A0E0B1E0ECEDFCE002C005900D92A630FD
:10017000B107D9F711E0A6E0B1E001C01D92A431AA
:10018000B107E1F70E949C050C946C060C940000EA
:10019000662311F4289801C0289A9BB1282F207F4C
:1001A0009F70922B9BB995E09A95F1F70000299AE0
:1001B00095E09A95F1F70000299890EF9A95F1F75C
:1001C0009BB1282F2295207F9F70922B9BB995E0A1
:1001D0009A95F1F70000299A95E09A95F1F70000B9
:1001E000299890EF9A95F1F7662341F4843030F422
:1001F0008FE39FE10197F1F700C000000895289870
:1002000029988FEF99EFA0E081509040A040E1F74E
:1002100000C000008BB18F7080638BB995E09A9518
:10022000F1F70000299AA5E0AA95F1F700002998B6
:10023000B0EFBA95F1F78FE19EE40197F1F700C0B6
:10024000000095E09A95F1F70000299AA5E0AA959B
:10025000F1F700002998B0EFBA95F1F78FE193E03C
:100260000197F1F700C0000095E09A95F1F70000C2
:10027000299AA5E0AA95F1F700002998B0EFBA9560
:10028000F1F78BB18F7080628BB985E08A95F1F7B9
:100290000000299A95E09A95F1F700002998A0EFBF
:1002A000AA95F1F788E260E00E94C80088E060E06B
:1002B0000E94C80081E060E00E94C8008CE060E01D
:1002C0000E94C80080E860E00E94C8000895CF93B3
:1002D000DF93EC018881882339F0219661E00E9448
:1002E000C80089918823D1F7DF91CF910895CF93EA
:1002F000DF93EC01FE012491222359F0FC0184914B
:1003000061E00E94C8002196CE01FE0124912223C3
:10031000A9F7DF91CF910895FB0120E3208321838A
:100320002283238324832AE030E0B9010E94580607
:10033000805D8193862F972F0097B9F7089580E805
:1003400060E00E94C80083E890E00E9477018091FD
:10035000000190E06CE071E00E948C0185EC60E0AF
:100360000E94C80080910E0161E00E94C800809147
:100370000D0161E00E94C80080910C0161E00E94C3
:10038000C80089EC60E00E94C8008CE361E00E9434
:10039000C80085E461E00E94C8008EE461E00E942C
:1003A000C80084E561E00E94C80085E461E00E9425
:1003B000C80082E561E00E94C8008EE361E00E940F
:1003C000C80030990EC0809100018F5F80930001BA
:1003D0008FEF91EEA4E081509040A040E1F700C083
:1003E000000031990EC0809100018150809300017E
:1003F0008FEF91EEA4E081509040A040E1F700C063
:100400000000329912C080910A018F5F80930A0127
:100410008FEF95EAAEE081509040A040E1F700C038
:10042000000081E060E00E94C800089580E860E07C
:100430000E94C8008BE990E00E9477018091020140
:1004400090E06CE071E00E948C0185EC60E00E941D
:10045000C80080910E0161E00E94C80080910D01EA
:1004600061E00E94C80080910C0161E00E94C80018
:1004700089EC60E00E94C8008CE361E00E94C80043
:1004800085E461E00E94C8008EE461E00E94C8003B
:1004900084E561E00E94C80085E461E00E94C80034
:1004A00082E561E00E94C8008EE361E00E94C8001E
:1004B00030990EC0809102018F5F809302018FEF0F
:1004C00091EEA4E081509040A040E1F700C0000010
:1004D00031990EC0809102018150809302018FEF0B
:1004E00091EEA4E081509040A040E1F700C00000F0
:1004F000329912C080910A018F5F80930A018FEFB9
:1005000095EAAEE081509040A040E1F700C00000C5
:1005100081E060E00E94C800089580E860E00E94E9
:10052000C8008FEA90E00E9477018091010190E07D
:100530006CE071E00E948C0185EC60E00E94C800D4
:1005400080910E0161E00E94C80080910D0161E080
:100550000E94C80080910C0161E00E94C80089ECF3
:1005600060E00E94C8008CE361E00E94C80085E45E
:1005700061E00E94C8008EE461E00E94C80084E54A
:1005800061E00E94C80085E461E00E94C80082E545
:1005900061E00E94C8008EE361E00E94C8003099CB
:1005A0000EC0809101018F5F809301018FEF91EE6A
:1005B000A4E081509040A040E1F700C000003199D4
:1005C0000EC0809101018150809301018FEF91EE67
:1005D000A4E081509040A040E1F700C000003299B3
:1005E00012C080910A018F5F80930A018FEF95EA14
:1005F000AEE081509040A040E1F700C0000081E0F3
:1006000060E00E94C800089580E860E00E94C80091
:100610008BED90E00E9477018091040190E06CE006
:1006200071E00E948C0185EC60E00E94C80080911E
:100630000E0161E00E94C80080910D0161E00E94FE
:10064000C80080910C0161E00E94C80089EC60E064
:100650000E94C8008CE361E00E94C80085E461E06C
:100660000E94C8008EE461E00E94C80084E561E059
:100670000E94C80085E461E00E94C80082E561E054
:100680000E94C8008EE361E00E94C80030990EC04D
:10069000809104018F5F809304018FEF91EEA4E0BD
:1006A00081509040A040E1F700C0000031990EC099
:1006B000809104018150809304018FEF91EEA4E0BA
:1006C00081509040A040E1F700C00000329918C06E
:1006D00080910A018F5F80930A018FEF95EAAEE067
:1006E00081509040A040E1F700C0000081E060E050
:1006F0000E94C80086E990E090930701809306016C
:10070000089580E860E00E94C80082EF90E00E94B7
:10071000770180910601909107016AE070E00E94E4
:100720005806CB016CE071E00E948C0185EC60E022
:100730000E94C80080910E0161E00E94C800809173
:100740000D0161E00E94C80080910C0161E00E94EF
:10075000C8008091060190910701009769F480918B
:100760000A018F5F80930A0180EC60E00E94C8005C
:100770008DE191E00E947701089580E860E00E9499
:10078000C80085EC90E00E9477018091030190E021
:100790006CE071E00E948C0185EC60E00E94C80072
:1007A00080910E0161E00E94C80080910D0161E01E
:1007B0000E94C80080910C0161E00E94C80089EC91
:1007C00060E00E94C8008CE361E00E94C80085E4FC
:1007D00061E00E94C8008EE461E00E94C80084E5E8
:1007E00061E00E94C80085E461E00E94C80082E5E3
:1007F00061E00E94C8008EE361E00E94C800309969
:100800000EC0809103018F5F809303018FEF91EE03
:10081000A4E081509040A040E1F700C00000319971
:100820000EC0809103018150809303018FEF91EE00
:10083000A4E081509040A040E1F700C00000329950
:1008400012C080910A018F5F80930A018FEF95EAB1
:10085000AEE081509040A040E1F700C0000081E090
:1008600060E00E94C80008952B9A339918C02B9815
:1008700080910A018F5F80930A019091000184E6C4
:10088000989FC0011124909307018093060180EC8A
:1008900060E00E94C80083E890E00E94770108951C
:1008A0002C9A80910601909107010097C1F42C9831
:1008B00080910A018F5F80930A019091020184E682
:1008C000989FC0011124909307018093060180EC4A
:1008D00060E00E94C8008BE990E00E9477010895D3
:1008E00080910601909107010097B9F480910A0167
:1008F0008F5F80930A0180EC60E00E94C8008FEA5D
:1009000090E00E9477019091010184E6989FC001D8
:100910001124909307018093060108952C9A8091E9
:100920000601909107010097C1F42C9880910A016B
:100930008F5F80930A019091030184E6989FC00124
:100940001124909307018093060180EC60E00E94DF
:10095000C80085EC90E00E9477010895809106011F
:1009600090910701009769F480910A018F5F80934D
:100970000A0180EC60E00E94C8008DE291E00E94D4
:10098000770108952A9A349918C02A9880910A010B
:100990008F5F80930A019091040184E6989FC001C3
:1009A0001124909307018093060180EC60E00E947F
:1009B000C8008BED90E00E94770108952C9A8091F9
:1009C0000601909107010097A1F42C9880910A01EB
:1009D0008F5F80930A0180EC60E00E94C80086E08F
:1009E00091E00E94770184EF91E09093070180935A
:1009F000060108952C982B982A9881E060E00E94C7
:100A0000C8008FE391E00E947701809106019091E8
:100A10000701009711F410920A010895CF93DF9314
:100A200080EC60E00E94C80080911301CCE0D1E02E
:100A300090E0BE010E948C0180910D0161E00E9456
:100A4000C80080910C0161E00E94C8008AE361E067
:100A50000E94C8008091110190E0BE010E948C01AB
:100A600080910D0161E00E94C80080910C0161E05D
:100A70000E94C800DF91CF91089585E085BD81E097
:100A800080936E0084E686BD789480931201089569
:100A90001F920F920FB60F9211242F933F934F93F3
:100AA0005F936F937F938F939F93AF93BF93EF93D6
:100AB000FF9384E686BD809106019091070100971F
:100AC00051F10197909307018093060180910A01EB
:100AD0008750873000F58DE860E00E94C800809163
:100AE00006019091070164E670E00E945806CB0170
:100AF0006CE071E00E948C0180910E0161E00E9427
:100B0000C80080910D0161E00E94C80080910C0135
:100B100061E00E94C800FF91EF91BF91AF919F915A
:100B20008F917F916F915F914F913F912F910F9096
:100B30000FBE0F901F901895FF920F931F93CF93A6
:100B4000DF938FEF84B993EC95B98AB98BB9109282
:100B5000C10017B888B90E94FF0081E060E00E94E0
:100B6000C8000E943D0586E990E0909307018093BC
:100B70000601C8E6D0E00F2EFEE0FF2EF02D04EFB8
:100B800011E080910A01873009F456C0883088F45A
:100B9000833009F445C0843028F48130D9F18230A3
:100BA000E0F51DC0853009F441C0863008F041C031
:100BB0003AC08B3009F44CC08C3038F4893009F4D9
:100BC00041C08A3008F041C03AC08D3009F446C0B7
:100BD0008D3008F440C08E3009F045C042C080E836
:100BE00060E00E94C800CE010E94770110920901C6
:100BF000109208018091060190910701009799F5E4
:100C000080910A018F5F80930A0181E060E00E9479
:100C1000C80029C00E949F0126C00E94160223C05E
:100C20000E948D0220C00E94BD031DC00E940403CB
:100C30001AC00E94810317C00E94340414C00E948D
:100C4000500411C00E9470040EC00E948E040BC09C
:100C50000E94AE0408C00E94C20405C00E94DE04C7
:100C600002C00E94FA0480910A01863008F489CFFC
:100C7000329919C0809108019091090101969093D1
:100C80000901809308012BE0893B920708F479CF92
:100C9000F0920A01109307010093060110920901D6
:100CA000109208016ECF109209011092080169CFCD
:100CB000AA1BBB1B51E107C0AA1FBB1FA617B70782
:100CC00010F0A61BB70B881F991F5A95A9F780959E
:0C0CD0009095BC01CD010895F894FFCF71
:060CDC00020303050600FF
:00000001FF
